:1000000007308A005C2F0000FF00030E8301A1006F
:100010000A08A0008A010408A2007708A300780853
:10002000A4007908A5007A08A60003170D08031399
:10003000A70003170F080313A80003170C080313E6
:10004000A90003170E080313AA00831383128C3030
:100050008400801E2D288C1A5A288C308400001CA5
:1000600033280C185D288C308400801C39288C18AB
:100070006028220884002308F7002408F8002508D7
:10008000F9002608FA00270803178D000313280833
:1000900003178F000313290803178C0003132A0882
:1000A00003178E00031320088A00210E8300FF0E21
:1000B0007F0E09008A110A12712B8A110A12032E6F
:1000C0008A110A12782E0B08BF008B1383160317B0
:1000D0008C170C140000000083120313BF1B8B1736
:1000E00003170C087F390319B9280313BF0003173E
:1000F0000D080313C00003170F080313C1003F08C6
:100100000C1E80289900400803178D000313410836
:1001100003178F0003130B08C2008B1383160317FA
:100120008C170C140000000083120313C21B8B17E2
:1001300003170C0D0E0D7F390319B9280313BF00E7
:1001400003170D080313C00003170F080313C100A2
:100150003F080C1EA9289900400803178D000313BF
:10016000410803178F008D0A03198F0A03136328B0
:100170000317031308004C0803192B29D400500857
:1001800003192B29D4070318CC287F30D402031C71
:100190002B2903192B29D0288130D40703182B29A8
:1001A0005408F700F801F901FA014D08D800D817F2
:1001B0004E08D7004F08D6001830D400D501561C81
:1001C000F9285308FA07031CEB28F90A031DEB284A
:1001D000F80A0319D5175208F907031CF228F80A80
:1001E0000319D5175108CE00CE174E08F80703188B
:1001F000D517D50DF80CF90CFA0CD80CD70CD60C79
:100200000310D40BDE280130F70703182B29F81B45
:100210001029D80DFA0DF90DF80DF70303192B2944
:10022000D81F2129FA0A031D2129F90A031D2129B2
:10023000F80A031D2129F80CF90CFA0CF70A031926
:100240002B294D08D5005108D506D51F2929F817A7
:100250002F29F8132F29F701F801F901FA010800F5
:100260003F0DF700F70DF70DF830F7051F08C739F8
:1002700077049F001F151F193B2983161E08831240
:10028000AF001E08B0003008C1002F08C0008E303B
:10029000F7004108F8004008F900FA01F808031DCA
:1002A0005B297908F800F9010830F702F808031D06
:1002B0005B29F70163290310F81B6229F90DF80D7A
:1002C000F7035B29F8137A08CF007908CE00780885
:1002D000CD007708CC000A30D3002830D20020307F
:1002E000D1007730D000BB207A08BC007908BB0071
:1002F0007808BA007708B90008004108C800450826
:10030000C806C81F882903110310C11B0314BB2989
:100310004108C8004408C9004008C90203199629C9
:10032000C81FBB290308013A8300BB294508C9003F
:100330004108C9020319A229C81FBB290308013AB1
:100340008300BB294608C9004208C9020319AE2927
:10035000C81FBB290308013A8300BB294708C9000D
:100360004308C9020319BA29C81FBB290308013A67
:100370008300BB29031008000B08C0008B138316F1
:1003800003178C170C140000000083120313C01B0A
:100390008B170318F42903170C087F390313C000C7
:1003A00003170D080313C10003170F080313C2003E
:1003B00040080C1ED9299900410803178D0003132A
:1003C000420803178F0003130B08C3008B13831617
:1003D00003178C170C140000000083120313C31BB7
:1003E0008B17BF0BF429142A03170C0D0E0D7F3940
:1003F0000313C00003170D080313C10003170F08F0
:100400000313C20040080C1E032A99004108031779
:100410008D000313420803178F008D0A03198F0AFA
:1004200003100313BF0BBC29080083181A2A543089
:1004300084008313F701F801F901FA01D401D50111
:10044000D601D70153085204510450040319582A05
:100450002030D8000310CC0DCD0DCE0DCF0DD40D16
:10046000D50DD60DD70D53085702031D412A52084A
:100470005602031D412A51085502031D412A500806
:100480005402031C522A5008D4025108031C510F75
:10049000D5025208031C520FD6025308031C530FF7
:1004A000D7020314F70DF80DF90DFA0DD80B2A2A0F
:1004B00054088000840A55088000840A5608800089
:1004C000840A5708800008000408C4004308C600D6
:1004D0000319832A4208CF004108CE004008CD000E
:1004E0003F08CC00D301D2012030D1008230D000AF
:1004F000BB207A08C2007908C1007808C0007708DC
:10050000BF00C60B6A2A4208CF004108CE0040084F
:10051000CD003F08CC004C08B63CCC00FA014D0899
:10052000D000CD170310CD0CCE0CCF0CFA0CF90C6B
:10053000F80CF70CCC0B922AD01FA92AF709F8095E
:10054000F909FA09F70A0319F80A0319F90A03194C
:10055000FA0A7A08C2007908C1007808C000770852
:10056000BF00C21FC02AC403C416BF09C009C10905
:10057000C209BF0A0319C00A0319C10A0319C20A32
:100580003B30CB009A30CA00CA30C900C8010A30DB
:10059000C60043080319C40A83143F308400831340
:1005A0004208CF004108CE004008CD003F08CC00F3
:1005B0004B08D3004A08D2004908D1004808D000AF
:1005C00015227808F708031DF82A430A4602031982
:1005D000F82A44080319FA2A0F3946020319F22AA5
:1005E00003182E2BC41B2E2B441BFA2A2030292B38
:1005F0002030C405C41E092BC4124308031DC403C4
:100600007708C4002D300C1E032B99004408F70016
:10061000C40143084602031D182B7708C4002E307E
:100620000C1E102B99004408F7002030C405003040
:100630003030C41E292BC4124308031DC40377089D
:10064000C4002D300C1E222B99004408F700C40171
:100650003030F70777080C1E2B2B990083104B08BE
:10066000CF004A08CE004908CD004808CC00D3018D
:10067000D201D1010A30D00015227A08CB007908C6
:10068000CA007808C9007708C800C60BCC2A080041
:100690000B08C0008B13831603178C170C14000073
:1006A000000083120313C01B8B1703170D080313DD
:1006B000C00003170F080313C10003170C0803132E
:1006C0000C1E602B9900400803178D00031341088E
:1006D00003178F008D0A03198F0A0313BF0B482BD2
:1006E00008008C1E712B1A08BE003E08303A031910
:1006F000802B013A0319182D033A0319202D5D2D83
:10070000293003178D0007308F0003136320F93061
:10071000B7000130B800FE30831687008312BD0099
:1007200001303802F800780DF700F70DF70DF830BA
:10073000F705770805389200370883169200831270
:100740003D113D0883168700831207110C30970076
:10075000B601B5010130BF0030213008B6002F08C6
:10076000B5003608F9003508F800F90CF80CF90C5A
:10077000F80CF90C78089500F90C790C3039F70071
:100780001708CF39770497000430BF00FA30C00053
:1007900040308400831300080319DF2B0130F80078
:1007A000BF30F7006400F70BD22BF80BD02B4A3088
:1007B000F700F70BD92B00006400800BCE2BBF0B8A
:1007C000C62BBF013021C301C201C101C0013C08D9
:1007D000C7003B08C6003A08C5003908C4007D219F
:1007E0000318F62B0319F62B0030F72B0130BF004E
:1007F0003C08C3003B08C2003A08C1003908C000E9
:100800007B30C7001430C6002E30C5007D30C400D8
:100810007D210030031801303F050319362CDD30EF
:1008200003178D0006308F00031013300313BF0031
:10083000BC21893084003C08C2003B08C1003A0852
:10084000C0003908BF000230C3006422E93003173A
:100850008D0006308F00031010300313BF00BC2141
:1008600083168601013083128600162D7B30C3006B
:100870001430C2002E30C1007D30C0003C08C700DB
:100880003B08C6003A08C5003908C4007D21003085
:1008900003180130BF003C08C3003B08C2003A08FF
:1008A000C1003908C0007130C7003D30C6000A30B1
:1008B000C5007E30C4007D210030031801303F05A3
:1008C0000319882CF23003178D0006308F000310B7
:1008D00013300313BF00BC21893084003C08C200E0
:1008E0003B08C1003A08C0003908BF000230C3000D
:1008F0006422FE3003178D0006308F000310133082
:100900000313BF00BC218316860183128601162DB6
:100910007130C3003D30C2000A30C1007E30C000DB
:100920003C08C7003B08C6003A08C5003908C400A7
:100930007D21003003180130BF003C08C3003B0894
:10094000C2003A08C1003908C000B830C7001E30E4
:10095000C6000530C5007F30C4007D21003003187B
:1009600001303F050319DB2C083003178D000730D9
:100970008F00031013300313BF00BC2189308400A3
:100980003C08C2003B08C1003A08C0003908BF005B
:100990000230C3006422143003178D0007308F002B
:1009A000031012300313BF00BC21831686010230EE
:1009B00083128600162DB830C3001E30C2000530E9
:1009C000C1007F30C0003C08C7003B08C6003A08A1
:1009D000C5003908C4007D21031C162D1E300317E5
:1009E0008D0007308F0003100E300313BF00BC21B1
:1009F000893084003C08C2003B08C1003A08C000AE
:100A00003908BF000230C30064220D300C1E062DD1
:100A100099000A300C1E0A2D9900831686010430B5
:100A2000831286008316061183128606AA2B722D66
:100A3000373003178D0007308F0003136320722DAA
:100A4000403003178D0007308F0003130B08BF00E1
:100A50008B13831603178C170C14000000008312ED
:100A60000313BF1B8B1703178C0803194F2D0D0899
:100A70000313BF0003170F080313C00003170C086C
:100A800003130C1E412D99003F0803178D0003131B
:100A9000400803178F008D0A03198F0A252D83162E
:100AA00003130C140030F800063883129200F9305A
:100AB000831692008C148312722D763003178D00EA
:100AC00005308F0018300313BF0048233E080C1E6A
:100AD000672D99000D300C1E6B2D99000A300C1EED
:100AE0006F2D99008C128A110A123928433461340F
:100AF0007234E134633474346534723420346E34C7
:100B00006F3420347234653463346F346E346F3430
:100B10006334693464346F343A34203425346334B4
:100B20000D340A3400344508F801440203189B2DA3
:100B30004408F700A72DF7010830C600C40DF70DD3
:100B4000450877020318F700F80DC60B9E2D080024
:100B500020303F1E3030C0003E08F700BE1FB82DC9
:100B6000F709F70A7708BE002D30C000BF173F1401
:100B70003E08C4006430C50093257708BE003030BD
:100B80007807C1003E08C4000A30C5009325303004
:100B90007707C30030307807C2004008F7003030D4
:100BA00041020319D72DBF14BF1B3F15EB2D400881
:100BB000C1002030C000303042020319E32D3F1441
:100BC000BF1BBF14EB2D031D3F14031DEB2D41086C
:100BD000C2002030C1003F19F22DBF18F62D3F187A
:100BE000FA2DFE2D40080C1EF32D990041080C1E15
:100BF000F72D990042080C1EFB2D990043080C1E8E
:100C0000FF2D99000800AD0A0319AE0AAE08031DB6
:100C10000D2E2D08123C0318562E83160610013097
:100C2000831286063308BE000630BF00F701F801C4
:100C30003E0803103F18F707F70CF80CBF18F7072A
:100C4000F70CF80C3F19F707F70CF80CBF19F7076A
:100C5000F70CF80C3F1AF707F70CF80CBF1AF70758
:100C6000F70CF80C3F1BF707F70CF80CBF1BF70746
:100C7000F70CF80C7808B4005A3003178D000630D2
:100C80008F0015300313BF0048233408BE0018300E
:100C9000BF00A825713003178D0006308F00063085
:100CA0000313BF004823AE01AD01B3010C108A113C
:100CB0000A12392846347234653463347534653425
:100CC0006E34633469346134203463346134723493
:100CD0006434ED346134633461343A34203425347F
:100CE00064342034423450344D340D340A340034EA
:100CF000AB0A0319AC0AAC08031D822E2B08003C7A
:100D00000318B62EAC01AB011830F8001F08C73924
:100D100078049F001F151F198B2E83161E0883123F
:100D2000AF001E08B0003208013C031CB22E300890
:100D3000013C0318B22EB30ABA3003178D000630F7
:100D40008F001E300313BF0048233308BE00183045
:100D5000BF00A8250D300C1EAB2E99000A300C1ECA
:100D6000AF2E99003008B2002F08B1008C108A1104
:100D70000A1239284E34FA346D34653472346F34C3
:100D8000203464346534203466346C3461346E3419
:100D900063346F34733420346434653474346534AC
:100DA00063347434613464346F3473343A342034CB
:100DB000253464340D340A340034CC30203AE5361E
:100DC000F032F230F43AF230A032731DA012321732
:100DD0003233A0162018AD19301067396132EF395F
:100DE0000D050000CC30203AE536F032F230F43A0E
:100DF000F230A032731DA01232173233A03CA0167D
:100E0000A019B1163518A033F230E437F3060A0002
:100E1000CC30203AE536F032F230F43AF230A032FB
:100E2000731DA01232173233A016A01AB116311852
:100E3000301067396132EF390D050001412645292F
:100E4000D420C120C120A110201025192E19E6069A
:100E50000A00CD30EE32EA3720326510EC30203A0D
:100E6000E536F032F230F43AF2300D050000CD30C4
:100E7000EE32EA37203265362038E539EF060A00CF
:100E80004D3461346E3465346A346F3420346434E4
:100E900065346C3420347234693474346D346F3496
:100EA00020346334613472346434ED346134633437
:100EB0006F340D340A34003403081F3983001930AD
:100EC00083169900A6309800903083129800AC01E8
:100ED000AB01AE01AD01B201B101B301B401FF300C
:100EE000BD0083161F149F141F159F1107309C000F
:100EF000831300308600860183128601B53090008E
:100F00008E018F018E01C0308B0483168C161F104A
:100F10009F101F119F111F1383121F179F178316F6
:0A0F20009F1783121F14932F630024
:02400E00313F40
:00000001FF
;PIC16F877A
;CRC=A464  CREATED="14-Jun-24 11:49"
