:1000000001308A0036290000D4326D386539613AF2
:100010007539611DA012EC3A0A00C230F331753611
:10002000611DA012EC3A0A00D234F4366F10C330CE
:100030007232E930E3373A10253675050001C337CF
:10004000ED306E326F10E432F3316F37EF316932D9
:100050006F0500000B08A5008B13831603178C1780
:100060000C140000000083120313A51B8B17031848
:10007000622803170C087F390313A50003170D0826
:100080000313A60003170F080313A70025080C1E6F
:1000900047289900260803178D0003132708031724
:1000A0008F0003130B08A8008B13831603178C17FC
:1000B0000C140000000083120313A81B8B17A40B61
:1000C0006228822803170C0D0E0D7F390313A5003B
:1000D00003170D080313A60003170F080313A70047
:1000E00025080C1E71289900260803178D0003139C
:1000F000270803178F008D0A03198F0A03100313B3
:10010000A40B2A280800AC010408AB002C10831BA8
:100110002C14250EF038A700A707E23EA800323EB7
:10012000AA0025080F39A807A807AA07E93EA900D1
:10013000A907A907240E0F39A907AA07A90DAA0D17
:10014000AA09AA0D24080F39AA07A70D0730A6008F
:100150000A30AA07A903031CA928A907A803031C9E
:10016000AD28A807A703031CB128A707A603031CF3
:10017000B52826308400831307302B052B13840702
:100180002A30040203192B170008F700031DD0289A
:100190002B1BD0282B1AD828AB19D0282030D328D5
:1001A000AB152B123030F70777080C1ED5289900B5
:1001B000840A2B1FC02808000B08A4008B13831689
:1001C00003178C170C140000000083120313A41BE8
:1001D0008B1703170C087F39031932290313A40066
:1001E00003170D080313A50003170F080313A60038
:1001F00024080C1EF9289900250803178D00031305
:10020000260803178F0003130B08A7008B13831610
:1002100003178C170C140000000083120313A71B94
:100220008B1703170C0D0E0D7F3903193229031399
:10023000A40003170D080313A50003170F080313E9
:10024000A60024080C1E22299900250803178D00FA
:100250000313260803178F008D0A03198F0A03134F
:10026000DC28031703138A110A12F12903081F3926
:100270008300193083169900A630980090308312BD
:10028000980083161F149F141F159F1107309C00A0
:1002900083131F109F101F119F111F1383121F170D
:1002A0009F1783169F1383121F148C1EF1298C1E17
:1002B00057291A08A3002308313A03196629033A7B
:1002C00003199229013A0319BE29EA290030F800DE
:1002D0001F08C73978049F0064000530F700F70B4A
:1002E0006F29722900001F151F19742983161E0813
:1002F0008312A1001E08A200043003178D000030F5
:100300008F0003100D300313A4002A201030840046
:100310002208A5002108A40083200A300C1E8E2983
:100320009900F1290830F8001F08C73978049F00A8
:1003300064000530F700F70B9B299E2900001F156C
:100340001F19A02983161E088312A1001E08A200EF
:100350000D3003178D0000308F0003100930031398
:10036000A4002A20103084002208A5002108A4003F
:1003700083200A300C1EBA299900F1291030F800A8
:100380001F08C73978049F0064000530F700F70B99
:10039000C729CA2900001F151F19CC2983161E085A
:1003A0008312A1001E08A200143003178D00003034
:1003B0008F00031010300313A4002A201030840093
:1003C0002208A5002108A40083200A300C1EE6297B
:1003D0009900F1291F3003178D0000308F0003139F
:0603E000DC285529630032
:02400E00313F40
:00000001FF
;PIC16F877A
;CRC=CC49  CREATED="23-May-24 13:07"
