:1000000008308A001C280000FF00030E8301A100B5
:100010000A08A0008A010408A2007708A300780853
:10002000A4007908A5007A08A60003170D08031399
:10003000A70003170F080313A80003170C080313E6
:10004000A90003170E080313AA00831383128C3030
:100050008400801E2D288C1A5A288C308400001CA5
:1000600033280C185D288C308400801C39288C18AB
:100070006028220884002308F7002408F8002508D7
:10008000F9002608FA00270803178D000313280833
:1000900003178F000313290803178C0003132A0882
:1000A00003178E00031320088A00210E8300FF0E21
:1000B0007F0E09008A110A12A72C8A110A12052F35
:1000C0008A110A127A2F2D105039EF33F230ED30A9
:1000D000A034EE34E33461326F102D000B08CC00F5
:1000E0008B13831603178C170C1400000000831267
:1000F0000313CC1B8B1703170C087F390319C42873
:100100000313CC0003170D080313CD0003170F08CA
:100110000313CE004C080C1E8B2899004D080317C2
:100120008D0003134E0803178F0003130B08CF0035
:100130008B13831603178C170C1400000000831216
:100140000313CF1B8B1703170C0D0E0D7F390319EB
:10015000C4280313CC0003170D080313CD000317A5
:100160000F080313CE004C080C1EB42899004D084C
:1001700003178D0003134E0803178F008D0A031910
:100180008F0A03136E280317031308005908031975
:100190003629E1005D0803193629E1070318D7283D
:1001A0007F30E102031C362903193629DB28813010
:1001B000E107031836296108F700F801F901FA018F
:1001C0005A08E500E5175B08E4005C08E300183016
:1001D000E100E201631C04296008FA07031CF62809
:1001E000F90A031DF628F80A0319E2175F08F90750
:1001F000031CFD28F80A0319E2175E08DB00DB1771
:100200005B08F8070318E217E20DF80CF90CFA0C7A
:10021000E50CE40CE30C0310E10BE9280130F707CF
:1002200003183629F81B1B29E50DFA0DF90DF80DF9
:10023000F70303193629E51F2C29FA0A031D2C2977
:10024000F90A031D2C29F80A031D2C29F80CF90CB6
:10025000FA0CF70A031936295A08E2005E08E2068A
:10026000E21F3429F8173A29F8133A29F701F8015F
:10027000F901FA0108004C0DF700F70DF70DF83001
:10028000F7051F08C73977049F001F151F19462956
:1002900083161E088312B0001E08B1003108CE007C
:1002A0003008CD008E30F7004E08F8004D08F900F8
:1002B000FA01F808031D66297908F800F9010830E9
:1002C000F702F808031D6629F7016E290310F81BD1
:1002D0006D29F90DF80DF7036629F8137A08DC008B
:1002E0007908DB007808DA007708D9000A30E000E6
:1002F0002830DF002030DE007730DD00C6207A08AD
:10030000BD007908BC007808BB007708BA003D083A
:10031000DC003C08DB003B08DA003A08D900E001C9
:10032000DF014830DE008530DD00C6207A08C100DC
:100330007908C0007808BF007708BE0083103D0828
:10034000D0003C08CF003B08CE003A08CD00D401D5
:10035000D301D201D10180308318D206D701D80150
:100360004E08D6005208D6064D0803199B2AD50020
:10037000F70051080319A42AD5020319402A031CC7
:10038000FE295208DB00DB175308DA005408D900B5
:10039000D8010310DB0CDA0CD90CD80CD50BC8290A
:1003A000D61FD5295714B82A571055105716503054
:1003B00084008313CD2A5712D61BE829551CF32934
:1003C000DB0CDA0CD90CD80CF70A0319B32AF32981
:1003D000DB1BF6290310D80DD90DDA0DDB0DF70361
:1003E0000319B32AE8295717602A57134E08D60075
:1003F000D61FFC29DB17AC2ADB13AC2A5108D50029
:10040000F7004D08D5024E08DB00DB174F08DA0075
:100410005008D900D8010310DB0CDA0CD90CD80C29
:10042000D50B0A2AD61F172AD714B82AD710551069
:10043000D716543084008313CD2AD712D61B2A2A0C
:10044000551C352ADB0CDA0CD90CD80CF70A031929
:10045000B32A352ADB1B382A0310D80DD90DDA0D43
:10046000DB0DF7030319B32A2A2AD717602AD713FB
:100470005208D600D61F3E2ADB17AC2ADB13AC2A63
:100480005208DB00DB175308DA005408D900D61FE6
:100490004D2ADB135715B82A5711D8015510503083
:1004A00084008313CD2AD61B762A4E08D600551C0D
:1004B000602ADB0CDA0CD90CD80CF70A0319B32A22
:1004C000D81F712AD90A031D712ADA0A031D712A5D
:1004D000DB0A031D712ADB0CDA0CD90CF70A0319AD
:1004E000B32A571BF529D71B372A952A8030DB06FC
:1004F000DB1F7E2AB82A5208D6008B2A4E08D60067
:10050000DB08031D8B2ADA08031D8B2AD908031D7B
:100510008B2AF701AC2ADB1B952A0310D80DD90DC5
:10052000DA0DDB0DF70B8B2AB32AD61F992ADB17BE
:10053000AC2ADB13AC2A5108F7005208DB00530841
:10054000DA005408D900AC2A4D08F7004E08DB0049
:100550004F08DA005008D9005B08F8005A08F90083
:100560005908FA00EB2AF701F801F901FA01EB2A20
:10057000D801D909DA09DB09D809D80A031DC62A26
:10058000D90A031DC62ADA0A0319DB0A5718D42927
:10059000D718162A57194C2A7B2A0008D907031C9A
:1005A000D72ADA0A031DD72ADB0A03195514840354
:1005B0000008DA07031CDF2ADB0A03195514840339
:1005C0000008801F803ADB0703185514571ADB29EF
:1005D000D71A1D2A532A7A08C5007908C40078085A
:1005E000C3007708C20008004D3084008313000860
:1005F00003190B2B0130F800BF30F7006400F70B34
:10060000FE2AF80BFC2A4A30F700F70B052B0000F6
:100610006400800BFA2A08004E08D5005208D5065F
:10062000D51F172B03110310CE1B03144A2B4E08A2
:10063000D5005108D6004D08D6020319252BD51F29
:100640004A2B0308013A83004A2B5208D6004E0871
:10065000D6020319312BD51F4A2B0308013A830018
:100660004A2B5308D6004F08D60203193D2BD51F3D
:100670004A2B0308013A83004A2B5408D60050083D
:10068000D6020319492BD51F4A2B0308013A8300D0
:100690004A2B031008008318502B61308400831309
:1006A000F701F801F901FA01E101E201E301E401D6
:1006B00060085F045E045D0403198E2B2030E500A2
:1006C0000310D90DDA0DDB0DDC0DE10DE20DE30DAC
:1006D000E40D60086402031D772B5F086302031DAD
:1006E000772B5E086202031D772B5D086102031CF5
:1006F000882B5D08E1025E08031C5E0FE2025F08C2
:10070000031C5F0FE3026008031C600FE402031484
:10071000F70DF80DF90DFA0DE50B602B610880005F
:10072000840A62088000840A63088000840A6408DE
:10073000800008000408D1005008D3000319B92B29
:100740004F08DC004E08DB004D08DA004C08D900E9
:10075000E001DF012030DE008230DD00C6207A08B3
:10076000CF007908CE007808CD007708CC00D30BF5
:10077000A02B4F08DC004E08DB004D08DA004C08C7
:10078000D9005908B63CD900FA015A08DD00DA1739
:100790000310DA0CDB0CDC0CFA0CF90CF80CF70C7F
:1007A000D90BC82BDD1FDF2BF709F809F909FA0966
:1007B000F70A0319F80A0319F90A0319FA0A7A0859
:1007C000CF007908CE007808CD007708CC00CF1F85
:1007D000F62BD103D116CC09CD09CE09CF09CC0A0D
:1007E0000319CD0A0319CE0A0319CF0A3B30D800EA
:1007F0009A30D700CA30D600D5010A30D30050084D
:100800000319D10A83144C30840083134F08DC0091
:100810004E08DB004D08DA004C08D9005808E0000B
:100820005708DF005608DE005508DD004B23780826
:10083000F708031D2E2C500A530203192E2C5108C1
:100840000319302C0F3953020319282C0318642C78
:10085000D11B642C511B302C20305F2C2030D10553
:10086000D11E3F2CD1125008031DD1037708D100AF
:100870002D300C1E392C99005108F700D101500879
:100880005302031D4E2C7708D1002E300C1E462C2F
:1008900099005108F7002030D10500303030D11ECA
:1008A0005F2CD1125008031DD1037708D1002D30E1
:1008B0000C1E582C99005108F700D1013030F70771
:1008C00077080C1E612C990083105808DC0057082B
:1008D000DB005608DA005508D900E001DF01DE012F
:1008E0000A30DD004B237A08D8007908D700780851
:1008F000D6007708D500D30B022C08000B08CD00DA
:100900008B13831603178C170C140000000083123E
:100910000313CD1B8B1703170D080313CD0003170B
:100920000F080313CE0003170C0803130C1E962C9C
:1009300099004D0803178D0003134E0803178F000D
:100940008D0A03198F0A0313CC0B7E2C08008C1E12
:10095000A72C1A08CB004B08303A0319B62C013AE1
:100960000319FA2D033A0319222E5F2EDF300317E5
:100970008D0007308F0003136E20F930B80001306E
:10098000B900FE30831687008312C6000130390299
:10099000F800780DF700F70DF70DF830F705770838
:1009A00005389200380883169200831246114608D3
:1009B00083168700831207110C309700B701B60128
:1009C0000330CC003B213108B7003008B6003708AF
:1009D000F9003608F800F90CF80CF90CF80CF90CD1
:1009E00078089500F90C790C3039F7001708CF39E1
:1009F000770497000430CC00FA30CD00F422CC0B01
:100A0000FC2CCC013B21D001CF01CE01CD0141080E
:100A1000D4004008D3003F08D2003E08D1000C2388
:100A20000318162D0319162D0030172D0130CC0098
:100A30004108D0004008CF003F08CE003E08CD005E
:100A4000D401D3017030D2008330D1000C230030A8
:100A5000031801304C050319482D893084004108E2
:100A6000CF004008CE003F08CD003E08CC00023049
:100A7000D0009A230D300C1E3B2D99000A300C1E1D
:100A80003F2D990083168601013083128600F82DD0
:100A9000D001CF017030CE008330CD004108D400AA
:100AA0004008D3003F08D2003E08D1000C2300309C
:100AB00003180130CC004108D0004008CF003F08A7
:100AC000CE003E08CD00D401D3014830D20084309E
:100AD000D1000C230030031801304C0503198A2D76
:100AE000893084004108CF004008CE003F08CD0087
:100AF0003E08CC000230D0009A230D300C1E7E2D13
:100B000099000A300C1E822D9900831686018312EB
:100B10008601F82DD001CF014830CE008430CD00C1
:100B20004108D4004008D3003F08D2003E08D1005D
:100B30000C23003003180130CC004108D0004008DD
:100B4000CF003F08CE003E08CD00D401D30148308D
:100B5000D2008530D1000C230030031801304C0541
:100B60000319CD2D893084004108CF004008CE0004
:100B70003F08CD003E08CC000230D0009A230D3053
:100B80000C1EC02D99000A300C1EC42D990083162E
:100B90008601023083128600F82DD001CF01483043
:100BA000CE008530CD004108D4004008D3003F0876
:100BB000D2003E08D1000C23031CF82D893084009C
:100BC0004108CF004008CE003F08CD003E08CC00D1
:100BD0000230D0009A230D300C1EEC2D99000A3003
:100BE0000C1EF02D990083168601043083128600B6
:100BF000E02C742EED3003178D0007308F000313A7
:100C00006E200130CC003B21893084004508CF00A4
:100C10004408CE004308CD004208CC000230D0008A
:100C20009A230D300C1E122E99000A300C1E162E1F
:100C300099000230CC00C830CD00F422CC0B1B2E22
:100C4000012E742E003003178D0008308F0003131F
:100C50000B08CC008B13831603178C170C140000A1
:100C6000000083120313CC1B8B1703178C08031986
:100C7000512E0D080313CC0003170F080313CD00EA
:100C800003170C0803130C1E432E99004C0803177E
:100C90008D0003134D0803178F008D0A03198F0A67
:100CA000272E831603130C140030F8000638831225
:100CB0009200F930831692008C148312742E7830CF
:100CC00003178D0006308F0018300313CC007E24EC
:100CD0004B080C1E692E99000D300C1E6D2E9900CC
:100CE0000A300C1E712E99008C128A110A123928B2
:100CF000433461347234E1346334743465347234AF
:100D000020346E346F3420347234653463346F347D
:100D10006E346F346334693464346F343A3420345D
:100D2000253463340D340A3400345208F80151027A
:100D300003189D2E5108F700A92EF7010830D300A3
:100D4000D10DF70D520877020318F700F80DD30BF9
:100D5000A02E080020304C1E3030CD004B08F7008C
:100D6000CB1FBA2EF709F70A7708CB002D30CD003C
:100D7000CC174C144B08D1006430D200952677086C
:100D8000CB0030307807CE004B08D1000A30D200BB
:100D9000952630307707D00030307807CF004D08E7
:100DA000F70030304E020319D92ECC14CC1B4C1551
:100DB000ED2E4D08CE002030CD0030304F0203190B
:100DC000E52E4C14CC1BCC14ED2E031D4C14031D2E
:100DD000ED2E4E08CF002030CE004C19F42ECC184A
:100DE000F82E4C18FC2E002F4D080C1EF52E9900E5
:100DF0004E080C1EF92E99004F080C1EFD2E99006E
:100E000050080C1E012F99000800AE0A0319AF0A02
:100E1000AF08031D0F2F2E08123C0318582F8316FE
:100E200006100130831286063408CB000630CC0051
:100E3000F701F8014B0803104C18F707F70CF80CF2
:100E4000CC18F707F70CF80C4C19F707F70CF80C4F
:100E5000CC19F707F70CF80C4C1AF707F70CF80C3D
:100E6000CC1AF707F70CF80C4C1BF707F70CF80C2B
:100E7000CC1BF707F70CF80C7808B5005C300317AB
:100E80008D0007308F0015300313CC007E24350809
:100E9000CB001830CC00AA26733003178D00073022
:100EA0008F0006300313CC007E24AF01AE01B401E5
:100EB0000C108A110A1239284634723465346334AE
:100EC000753465346E34633469346134203463348A
:100ED000613472346434ED346134633461343A34EF
:100EE0002034253464342034423450344D340D34AD
:100EF0000A340034AC0A0319AD0AAD08031D842F6F
:100F00002C08003C0318B82FAD01AC011030F800DC
:100F10001F08C73978049F001F151F198D2F8316CE
:100F20001E088312B0001E08B1003308013C031CE8
:100F3000B42F3108013C0318B42FB40ABC30031796
:100F40008D0007308F001E300313CC007E24340840
:100F5000CB001830CC00AA260D300C1EAD2F990006
:100F60000A300C1EB12F99003108B3003008B200CE
:100F70008C108A110A1239284E34FA346D346534D3
:100F800072346F34203464346534203466346C3405
:100F900061346E3463346F347334203464346534B4
:100FA0007434653463347434613464346F3473344A
:100FB0003A342034253464340D340A340034CD30CE
:100FC000EE32EA3720326510EC30203AE536F03266
:100FD000F230F43AF2300D050000CD30EE32EA374F
:0C0FE000203265362038E539EF060A00A3
:101000004D3461346E3465346A346F342034643462
:1010100065346C3420347234693474346D346F3414
:1010200020346334613472346434ED3461346334B5
:101030006F340D340A34003403081F39830019302B
:1010400083169900A6309800903083129800AD0165
:10105000AC01AF01AE01B301B201B401B501FF3083
:10106000C60083161F149F141F159F1107309C0084
:10107000831300308600860183128601B53090000C
:101080008E018F018E01C0308B0483168C161F10C9
:101090009F101F119F111F1383121F179F17831675
:1010A0009F1783121F14633003178D0000308F00C9
:1010B0000313AB018B1BAB178B138A116E208A15A0
:0810C000AB1B8B1762286300D3
:02400E00313F40
:00000001FF
;PIC16F877A
;CRC=EFCF  CREATED="28-Jun-24 21:31"
